:020000040800F2
:1000000008080020550F0008D1030008D30300089A
:10001000D7030008DB030008DF030008000000002E
:10002000000000000000000000000000E3030008E2
:10003000E503000800000000E7030008E9030008EA
:100040006F0F00086F0F00086F0F00086F0F000898
:100050006F0F00086F0F00086F0F00086F0F000888
:100060006F0F00086F0F00086F0F00086F0F000878
:100070006F0F00086F0F00086F0F00086F0F000868
:100080006F0F00086F0F00086F0F00086F0F000858
:100090006F0F00086F0F00086F0F00086F0F000848
:1000A0006F0F00086F0F00086F0F00086F0F000838
:1000B0006F0F00086F0F00086F0F00086F0F000828
:1000C0006F0F00086F0F00086F0F00086F0F000818
:1000D0006F0F0008770E00086F0F00086F0F000801
:1000E0006F0F00086F0F00086F0F00086F0F0008F8
:1000F0006F0F00086F0F00086F0F00086F0F0008E8
:100100006F0F00086F0F00086F0F00086F0F0008D7
:100110006F0F00086F0F00086F0F00086F0F0008C7
:100120006F0F00086F0F00086F0F00086F0F0008B7
:1001300000F002F800F03FF80AA090E8000C8244BA
:100140008344AAF10107DA4501D100F034F8AFF297
:10015000090EBAE80F0013F0010F18BFFB1A43F0A5
:1001600001031847881C0000A81C0000103A24BF97
:1001700078C878C1FAD8520724BF30C830C144BF0C
:1001800004680C607047000000230024002500264E
:10019000103A28BF78C1FBD8520728BF30C148BFEA
:1001A0000B607047642901F02985002070471FB556
:1001B0001FBD10B510BD01F0E9FD1146FFF7F7FFB7
:1001C00000F0D0F801F007FE03B4FFF7F2FF03BC24
:1001D00000F032FD2DE9F04704460F4615461E4655
:1001E000DDE9099ADDF820806948007800281ED0F2
:1001F000002067490870214666A001F0BFFC39461F
:1002000066A001F0BBFC294666A001F0B7FC3146B0
:1002100066A001F0B3FC414666A001F0AFFC494680
:1002200066A001F0ABFC514666A001F0A7FCBDE85A
:10023000F0872DE9F04704460F4615461E46DDE9D6
:10024000088953480078D0B10020514908702146F0
:1002500050A001F093FC394650A001F08FFC2946D4
:1002600050A001F08BFC314650A001F087FC4146C4
:1002700050A001F083FC494650A001F07FFCBDE88E
:10028000F08770B504460E4615464148007870B1B7
:1002900000203F49087021463EA001F06FFC314626
:1002A0003EA001F06BFC29463EA001F067FC70BD4A
:1002B00010B504463648007830B100203449087043
:1002C000214634A001F05AFC10BD70B504460E461C
:1002D00015462F48007870B100202D49087021463E
:1002E0002CA001F04BFC31462CA001F047FC294624
:1002F0002CA001F043FC70BD10B52548007890B1EA
:100300000020234908704FF4FA7000F068FC4FF4A5
:10031000FA7000F064FC4FF4FA7000F060FC4FF4E7
:10032000FA7000F05CFC10BD2DE9F04104460F4668
:1003300015461E461648007890B1002014490870F2
:10034000214614A001F01AFC394614A001F016FC55
:10035000294614A001F012FC314614A001F00EFC55
:10036000BDE8F08100F0FEFB4FF4A06001F096FBC9
:100370004FF4E131154800F06EFC00F027F941F22E
:10038000883000F02CFC01E000F0A9FBFCE7000045
:1003900014000020613D25640D0A0000623D2564C3
:1003A0000D0A0000633D25640D0A0000643D2564CC
:1003B0000D0A0000653D25640D0A0000663D2564B8
:1003C0000D0A0000673D25640D0A0000C0000020F2
:1003D000704700BFFEE700BFFEE700BFFEE700BFBB
:1003E000FEE7704770477047704700000CB500206B
:1003F000019000906C48006840F480306A490860C1
:1004000000BF6948006800F4003000900198401C6B
:100410000190009818B90198B0F5A06FF1D1624829
:10042000006800F4003010B10120009001E00020CD
:1004300000900098012843D15C48006840F010000B
:100440005A4908600846006820F003000860084622
:10045000006840F002000860534840685249486014
:100460000846406848600846406840F4806048603C
:100470000846406820F47C1048600846406840F414
:10048000E81048600846006840F08070086000BFCF
:100490004548006800F000700028F9D042484068E4
:1004A00020F00300404948600846406840F00200E0
:1004B000486000BF3C48406800F00C000828F9D1B3
:1004C0000CBD10B5FFF792FF10BD10B5364800689F
:1004D00040F001003449086008464068344908404B
:1004E0003149486008460068324908402E49086092
:1004F0000846006820F4802008600846406820F420
:10050000FE0048604FF41F008860FFF7DAFF4FF0ED
:1005100000602949086010BD10B5002100200022AC
:10052000214B5B6803F00C0121B1042906D0082996
:1005300028D107E0214B224C236027E01F4B204CA1
:10054000236023E0184B5B6803F47010164B5B6864
:1005500003F48032022303EB904022B9194B43434A
:10056000174C23600DE0104B5B6803F4003323B19C
:10057000144B4343124C236003E0104B4343104C95
:10058000236003E00D4B0E4C236000BF00BF064B01
:100590005B68C3F303130C4CE15C094B1B68CB4055
:1005A000074C236010BD00000010024000200240F4
:1005B0000000FFF8FFFFF6FE08ED00E000127A00F1
:1005C0000000002000093D000400002008B50121C2
:1005D000302000F0FBFF4FF40050ADF80000102079
:1005E0008DF8030003208DF802006946094800F0E9
:1005F00031FD4FF40051074800F0D9FD0420ADF85B
:1006000000006946044800F025FD0421024800F07E
:10061000CEFD08BD0010014000140140FEB5F848B1
:10062000007B08285DD2DFE800F0040A1119222CB3
:100630003949F349096808688047C4B251E0F04A73
:100640005069126811688847C4B24AE0EC4B996956
:1006500058691B681A689047C4B242E0E84DEA69DD
:10066000A96968692D682B689847C4B239E0E44EDF
:10067000336AF269B169706936683568A847C4B2EF
:100680002FE0DF48406ADE4E0090336AF269B169BC
:10069000706936683568A847C4B222E0D848806AD5
:1006A000D749496AD64ECDE90010336AF269B1697B
:1006B000706936683568A847C4B212E0D048C06A8D
:1006C000CF49896ACE4A526ACD4ECDE900210290C7
:1006D000336AF269B169706936683568A847C4B28F
:1006E00000BF00BF2046FEBD02460B4600210AE0C7
:1006F000C44800EB01108079904202D119700020AB
:100700007047481CC1B20729F2DB0120F8E70FB59A
:10071000002202920392032100200CE0B84A127AD0
:10072000B84B03EB0212121D525C0DF800204A1C5C
:10073000D1B2421CD0B20728F0DB00203EE01DF809
:100740000020082A37D2DFE802F004050C131A2132
:10075000282F30E09DF80820521CD2B28DF80820D6
:1007600029E09DF80920521CD2B28DF8092022E020
:100770009DF80A20521CD2B28DF80A201BE09DF889
:100780000B20521CD2B28DF80B2014E09DF80C20E7
:10079000521CD2B28DF80C200DE09DF80D20521C99
:1007A000D2B28DF80D2006E09DF80E20521CD2B278
:1007B0008DF80E2000BF00BF421CD0B20728BEDB60
:1007C0000021002006E002AA125C0AB14A1CD1B244
:1007D000421CD0B20728F6DB894A1173002006E0DC
:1007E00002AA135C864A0D321354421CD0B2072869
:1007F000F6DB0FBD38B5044669462046FFF774FFA7
:100800000546F5B99DF800007D4908720846007A52
:100810007C4901EB00107A4908607A489DF8001085
:1008200000EB011040797649C87276489DF80010B7
:1008300000EB0110807972494872FFF768FF0020D1
:1008400038BD0120FCE710B50146002308780123DC
:10085000002205E0CC5C8C545C1CE3B2541CE2B278
:10086000062AF7DB00248C7110BD30B50146002349
:100870004C780D7804EB05200223002205E0CC5CC7
:100880008C545C1CE3B2541CE2B2052AF7DB05224F
:1008900003E000248C54541CE2B2072AF9DB30BD7B
:1008A00030B5014600230C7824064D7804EB05444E
:1008B0008D7804EB0524CD7860190423002205E02F
:1008C000CC5C8C545C1CE3B2541CE2B2052AF7DB0E
:1008D000052203E000248C54541CE2B2072AF9DB01
:1008E00030BD7CB504462078454988720226002533
:1008F00006E0A05D0DF80500701CC6B2681CC5B20C
:10090000072DF6DB3E48407B002871D03C48407BF9
:10091000012804D0022808D0042812D10BE0684630
:10092000FFF791FF364948610BE06846FFF79DFFEE
:100930003349486105E06846FFF7B2FF3049486136
:1009400000BF00BF2E48807BE8B12D48807B30B1CE
:10095000012805D0022809D0042813D10CE011E0A9
:100960006846FFF770FF264988610BE06846FFF78D
:100970007CFF2349886105E06846FFF791FF204925
:10098000886100BF00BF1E48C07BE8B11C48C07B27
:1009900030B1012805D0022809D0042813D10CE079
:1009A00011E06846FFF74FFF1549C8610BE0684644
:1009B000FFF75BFF1249C86105E06846FFF770FF6B
:1009C0000F49C86100BF00BF0D48007C18B30C4838
:1009D000007C30B1012805D002280AD0042819D1A2
:1009E00012E017E06846FFF72EFF0549086211E0A4
:1009F00074E06846FFF739FF014908620AE0000029
:100A000088000020180000206846FFF749FF4C4985
:100A1000086200BF00BF4A48407CE8B14848407CBB
:100A200030B1012805D0022809D0042813D10CE0E8
:100A300011E06846FFF707FF414948620BE068464E
:100A4000FFF713FF3E49486205E06846FFF728FFBD
:100A50003B49486200BF00BF3948807CE8B1384854
:100A6000807C30B1012805D0022809D0042813D198
:100A70000CE011E06846FFF7E6FE314988620BE0C2
:100A80006846FFF7F2FE2E49886205E06846FFF7E8
:100A900007FF2B49886200BF00BF2948C07CE8B12E
:100AA0002748C07C30B1012805D0022809D004288D
:100AB00013D10CE011E06846FFF7C5FE2049C8627B
:100AC0000BE06846FFF7D1FE1D49C86205E06846A5
:100AD000FFF7E6FE1A49C86200BF00BF7CBD3EB505
:100AE0001848008800F4004040B317480078AA284E
:100AF00021D11548807ABB281DD1002406E0124977
:100B0000601C085C0DF80400601CC4B2092CF6DB04
:100B10009DF800000D4908709DF80100FFF76AFE7E
:100B200005462DB96846FFF7DCFEFFF777FD02E0CA
:100B300007A001F023F80020024908803EBD000014
:100B400088000020C8000020E000002014000020E1
:100B5000CEDEB4CBD6B8C1EEA3A1A3A1A3A10D0A4A
:100B60000000000010B56FF0040000F0E6FF2E4812
:100B700000682E49B0FBF1F02D4908700846007856
:100B800000EB4001C1EBC0104FF6FF7101EAC0005D
:100B90002849088010BD0146254A12784A434FF083
:100BA000E0235A6100229A611A46126942F001025A
:100BB0001A6100BF4FF0E022106900F001021AB183
:100BC00000F48032002AF5D04FF0E022126922F0C2
:100BD00001024FF0E0231A6100229A61704701463A
:100BE000144A12884A434FF0E0235A6100229A6166
:100BF0001A46126942F001021A6100BF4FF0E0226A
:100C0000106900F001021AB100F48032002AF5D018
:100C10004FF0E022126922F001024FF0E0231A6146
:100C200000229A61704700000000002000127A0044
:100C3000B8000020BA000020014600BF704700BF86
:100C4000B94A128802F04002002AF9D0C2B2B64B6B
:100C50001B1D1A80704730B587B004460D46B24957
:100C60002068884224D1012144F2040000F0AEFC47
:100C7000AD4800F00FFD4FF40070ADF818000320F0
:100C80008DF81A0018208DF81B0006A9A74800F05F
:100C9000E1F94FF48060ADF8180004208DF81B00D6
:100CA00006A9A24800F0D6F925208DF80400AAE094
:100CB0009F492068884225D10121042000F086FC4C
:100CC0000121480400F08FFC994800F0E3FC042067
:100CD000ADF8180003208DF81A0018208DF81B00BD
:100CE00006A9924800F0B6F90820ADF818000420D3
:100CF0008DF81B0006A98D4800F0ACF926208DF870
:100D0000040080E08B492068884227D10121082017
:100D100000F05CFC0121880400F065FC4FF4806069
:100D2000ADF8180003208DF81A0018208DF81B006C
:100D300006A9814800F08EF94FF40060ADF8180064
:100D400004208DF81B0006A97B4800F083F92720BA
:100D50008DF80400774800F09DFC54E07749206846
:100D6000884227D10121102000F030FC0121C80465
:100D700000F039FC4FF48060ADF8180003208DF8C6
:100D80001A0018208DF81B0006A96D4800F062F9C2
:100D90004FF40060ADF8180004208DF81B0006A980
:100DA000674800F057F934208DF80400634800F0DC
:100DB00071FC28E063492068884224D10121302059
:100DC00000F004FC0121080500F00DFC4FF48050F8
:100DD000ADF8180003208DF81A0018208DF81B00BC
:100DE00006A9574800F036F90420ADF818008DF830
:100DF0001B0006A9544800F02DF935208DF8040099
:100E0000504800F047FC20798DF8050060798DF896
:100E1000060001208DF8070001A800F044FE0295AD
:100E20000020ADF80C00ADF80E00ADF81000ADF8E4
:100E300014000C20ADF8120002A9206800F06DFC2F
:100E4000A07930B9002240F22441206800F0FDFC76
:100E500005E0012240F22441206800F0F6FC012266
:100E600040F22551206800F0F0FC0121206800F0DC
:100E7000E0FC07B030BD70B5002400BF40F2255142
:100E8000294800F0C7FDA0B140F22551264800F0E6
:100E9000EBFD254800F03EFDC4B22C480088C0F3AD
:100EA0000D002B490C5429480088401C2749088014
:100EB00012E040F224411C4800F0ACFD60B11A4839
:100EC0000088C5B21848001D0088C5B21F480088B8
:100ED00040F400401D49088070BDC1F308028280C3
:100EE00000BF028802F04002002AFAD0704730B5F5
:100EF00005460B46144606E013F8011B2846FFF78B
:100F0000ECFF601EC4B2002CF6DC30BD10B5044608
:100F10000B4604E013F8011B2046FFF7DEFF1878AC
:100F20000028F7D110BD0000003801400008014042
:100F30000044004000480040000C0140004C0040CC
:100F4000001001400050004000140140C800002083
:100F5000E00000200948804709480047FEE7FEE717
:100F6000FEE7FEE7FEE7FEE7FEE7FEE7FEE7FEE759
:100F700004480549054A064B70470000CB040008A9
:100F800031010008080200200808002008040020A1
:100F90000804002010B50446CC48844208D1012141
:100FA000042000F02DFB0021042000F029FB46E086
:100FB000C748844208D10121082000F021FB00210C
:100FC000082000F01DFB3AE0C248844208D101210C
:100FD000102000F015FB0021102000F011FB2EE086
:100FE000BD48844208D10121202000F009FB0021E6
:100FF000202000F005FB22E0B848844208D10121FE
:10100000402000F0FDFA0021402000F0F9FA16E03F
:10101000B348844208D10121802000F0F1FA002178
:10102000802000F0EDFA0AE0AE48844207D10121A9
:10103000801500F0E5FA0021A01500F0E1FA10BDDE
:1010400010B50121084600F0DBFA0021012000F074
:10105000D7FA10BD2DE9F0410246002500260020F8
:1010600000230024002791F803C00CF00F0591F82D
:1010700003C00CF0100CBCF1000F03D091F802C0BB
:101080004CEA050591F800C0BCF1000F31D014689E
:1010900000202BE04FF0010C0CFA00F3B1F800C077
:1010A0000CEA03069E4220D183004FF00F0C0CFA8D
:1010B00003F7BC4305FA03FC4CEA040491F803C0AF
:1010C000BCF1280F06D14FF0010C0CFA00FCC2F85D
:1010D00014C00AE091F803C0BCF1480F05D14FF0ED
:1010E000010C0CFA00FCC2F810C0401C0828D1D337
:1010F0001460B1F800C0BCF1FF0F34DD546800206B
:101100002EE000F1080C4FF0010808FA0CF3B1F8DA
:1011100000C00CEA03069E4221D183004FF00F0C61
:101120000CFA03F7BC4305FA03FC4CEA040491F8FB
:1011300003C0BCF1280F05D100F1080C08FA0CF827
:10114000C2F8148091F803C0BCF1480F07D100F138
:10115000080C4FF0010808FA0CF8C2F81080401C87
:101160000828CED35460BDE8F0814FF6FF710180AE
:10117000022181700421C1707047024600209368EB
:101180000B400BB1012000E0002070470146886849
:1011900080B2704702460020D3680B400BB101209B
:1011A00000E0002070470146C86880B270470161C6
:1011B0007047416170470AB1016100E041617047C9
:1011C000C16070474FF480320A438261816182615D
:1011D00082698269704702460020434B18684FF6C7
:1011E0008073184040EA021008433F4B1860704774
:1011F0003E49C8617047F0B50A460023002400212B
:10120000002500F00046B6F1004F02D1364EF169DC
:1012100001E0354E7168C0F3034583B200F4401617
:10122000B6F5401F08D121F070612F4E766826F088
:1012300070662D4F7E6012E000F48016B6F5801FB8
:1012400006D1032606FA05F4A14341F0706106E0D9
:10125000460D360103FA06F6B14341F0706122B142
:10126000460D360103FA06F6314300F00046B6F1AA
:10127000004F02D11C4EF16101E01B4E7160F0BDC8
:1012800030B500228B071C0F0F2303FA04F2164B14
:1012900008338C1053F824309343134C08348D10CA
:1012A00044F8253023468C1053F824308C07240F43
:1012B00000FA04F423430C4C08348D1044F8253014
:1012C00030BD0A49DC310860704700000008014069
:1012D000000C0140001001400014014000180140C2
:1012E000001C01400020014000000140000020429D
:1012F000DF48006840F00100DD49086008464068AA
:10130000DC490840DA49486008460068DA49084084
:10131000D74908600846006820F480200860084625
:10132000406820F4FE0048604FF41F00886070475A
:10133000CF49096821F48031CD4A1160114609680E
:1013400021F480211160B0F5803F03D0B0F5802FEB
:101350000ED106E0C649096841F48031C44A1160E3
:1013600007E0C349096841F4A021C14A116000E0C7
:1013700000BF00BF704710B50146002200230020C7
:101380004A11012A02D1BA4C236806E0022A02D18E
:10139000B74C236A01E0B64C636A01F01F020124D6
:1013A00094401C400CB1012000E0002010BD38B575
:1013B000002000900024002500BF3120FFF7DBFF54
:1013C00005460098401C00900098B0F5A06F01D031
:1013D000002DF2D03120FFF7CEFF08B1012400E04C
:1013E0000024204638BD01460020A14A106820F0A4
:1013F000F80040EAC10010607047A04908607047DB
:10140000024600209A4B586820F47C1042EA0103FF
:101410001843974B586070479849086670470146D3
:101420000020934A506820F0030008435060704742
:101430008F48406800F00C007047014600208C4A3D
:10144000506820F0F00008435060704701460020CB
:10145000874A506820F4E0600843506070470146B6
:101460000020834A506820F4605040EAC100506078
:10147000704729B17E4A527A02437D4B5A7204E08A
:101480007B4A527A82437A4B5A7270477B49D831F1
:101490000860704701460020754A506820F44040BB
:1014A0000843506070470021714A20321170704A21
:1014B00082F82010012802D004280AD104E001217A
:1014C0006B4A2032117005E00521694A2032117003
:1014D00000E000BF00BF7047694908607047644979
:1014E000096A0143624A11627047654944390860DC
:1014F000704730B500210022002400235C4D6D6848
:1015000005F00C0121B1042905D0082923D105E0FB
:101510005C4D056022E05B4D05601FE0544D6D6839
:1015200005F47012524D6D6805F48034022505EB08
:1015300092421CB9544D554305600BE04C4D6D680B
:1015400005F400351DB1504D5543056002E04D4D89
:101550005543056002E04B4D056000BF00BF444DA0
:101560006D6805F0F0010909484D6B5C0568DD40C8
:1015700045603F4D6D6805F4E061090A434D6B5CC1
:101580004568DD4085603A4D6D6805F46051C90AD3
:101590003E4D6B5C4568DD40C560354D6D6805F4BA
:1015A0004041890B3A4D6B5CC568B5FBF3F50561AD
:1015B00030BD29B12E4A526902432D4B5A6104E0D5
:1015C0002B4A526982432A4B5A61704729B1284AF3
:1015D00092690243264B9A6104E0254A926982434C
:1015E000234B9A61704729B1214AD2690243204BAB
:1015F000DA6104E01E4AD26982431D4BDA6170470A
:1016000029B11B4AD2680243194BDA6004E0184A38
:10161000D2688243164BDA60704729B1144A1269C6
:101620000243134B1A6104E0114A12698243104BC2
:101630001A61704712494039086070470F49C86401
:1016400070470B49C87170470948406A40F0807084
:1016500007494862704701460020054A92680A40DF
:101660000AB1012000E000207047014988727047EC
:10167000001002400000FFF8FFFFF6FE00004242AB
:101680008004424200127A0000093D00CA00002096
:10169000DA00002010B50446FB48844209D101213C
:1016A0008803FFF7ADFF00214FF48040FFF7A8FF4C
:1016B00032E0F648844209D101214804FFF7ADFF2A
:1016C00000214FF40030FFF7A8FF25E0F0488442E6
:1016D00009D101218804FFF7A0FF00214FF48020E9
:1016E000FFF79BFF18E0EB48844209D10121C804B1
:1016F000FFF793FF00214FF40020FFF78EFF0BE070
:10170000E548844208D101210805FFF786FF002142
:101710004FF48010FFF781FF10BD2DE9F04786B030
:1017200005460E460024A24600BFA1460027B08908
:1017300000B100BF2F462C8A4CF6FF700440F088A1
:1017400004432C82AC894EF6F3100440B0883189F2
:101750000843718908430443AC81AC8A4FF6FF40CB
:101760000440B0890443AC8201A8FFF7C2FEC6481A
:10177000874202D1DDF810A001E0DDF80CA0A889B5
:1017800000F4004040B10AEBCA0000EB0A103168D7
:101790004900B0FBF1F807E00AEBCA0000EB0A10C1
:1017A00031688900B0FBF1F86420B8FBF0F0040167
:1017B0002009642101FB1089A88900F4004040B190
:1017C000322000EBC900B0FBF1F000F00700044349
:1017D00008E0322000EB09106421B0FBF1F000F0CA
:1017E0000F0004432C8106B0BDE8F0874FF416517A
:1017F000016000218180C18001810C214181002193
:101800008181704710B502460020108A4FF2FF0315
:1018100018400B884C8823438C882343CC8823436F
:101820001843108210BD0021018041808180C18059
:10183000704721B1828942F40052828104E082899A
:101840004DF6FF731A4082817047F0B503460024BD
:1018500000260025002040F66A17B94200D100BFDB
:101860001846C1F3421401F01F06012707FA06F5D6
:10187000012C01D10C3004E0022C01D1103000E029
:1018800014301AB107682F43076002E00768AF43BE
:101890000760F0BD1AB1838A0B43838202E0838A1A
:1018A0008B4383827047028A4FF6F0731A4002829C
:1018B000028A0A430282704782894FF2FF731A40FC
:1018C000828182890A438281704721B1828942F0F4
:1018D0000202828104E082894FF6FD731A40828100
:1018E0007047028A4FF6DF731A400282028A0A4367
:1018F0000282704721B1028A42F48042028204E0EF
:10190000028A4BF6FF731A4002827047C1F3080245
:101910008280704701468888C0F30800704781893B
:1019200041F0010181817047028BD2B20283028BA8
:1019300042EA012202837047028B02F47F42028353
:10194000028B0A430283704721B1828A42F020024F
:10195000828204E0828A4FF6DF731A4082827047E7
:1019600021B1828A42F01002828204E0828A4FF61C
:10197000EF731A408282704721B1828A42F00802D6
:10198000828204E0828A4FF6F7731A40828270479F
:1019900021B1828942F40042828103E08289C2F34C
:1019A0000E028281704721B1828A42F400628282F3
:1019B00004E0828A4FF2FF731A4082827047828A63
:1019C0004FF6FB731A408282828A0A4382827047F2
:1019D00021B1828A42F00202828204E0828A4FF6BA
:1019E000FD731A408282704702460020B1F5007FE5
:1019F00000D100BF13880B400BB1012000E0002094
:101A0000704701F40072B2F5007F00D100BFCA43F5
:101A10000280704770B50246002400230025002094
:101A200040F66A16B14200D100BFC1F3421501F081
:101A30001F03012606FA03F3012D02D196893340D4
:101A400006E0022D02D1168A334001E0968A334027
:101A50000C12012606FA04F41688344013B10CB1B6
:101A6000012000E0002070BD10B50022002340F6E8
:101A70006A14A14200D100BF0A1201249440A3B20B
:101A8000DC43048010BD00000038014000440040E9
:101A900000480040004C00400050004031490143E4
:101AA000314A1160704770B5002100230F22C478BD
:101AB00004B32D4C246804F4E064C4F5E064210A06
:101AC000C1F10403CA40447804FA03F18478144055
:101AD00021430901254C0678A155047804F01F051F
:101AE0000124AC4005786D11AD0005F1E025C5F885
:101AF000004109E0047804F01F050124AC401C4DAE
:101B00000678761145F8264070BD1A4A0A4002430D
:101B1000154B1B1F1A60704739B1134A121D12680A
:101B20000243114B1B1D1A6006E00F4A121D12687A
:101B300082430D4B1B1D1A607047042808D14FF0DB
:101B4000E021096941F004014FF0E022116107E052
:101B50004FF0E021096921F004014FF0E02211610A
:101B6000704700000000FA050CED00E000E400E022
:101B700080E100E080FFFF1F704700000FB40449C0
:101B800010B503AA029800F0D3F810BC5DF814FB5E
:101B9000BC0000202DE9F0410E46044600202062E2
:101BA0002046E168884730B3252805D0D4E90121D3
:101BB0009047206A401CF2E7E168204600278847EA
:101BC000050018D0A5F14100192802D820354FF49E
:101BD00000673246294620462760FEF7E3FA40B107
:101BE000012804D0F61D26F007060836D8E7361D72
:101BF000D6E72846DAE7206ABDE8F0812DE9F04112
:101C00000646002410687529314616A510D0AFF39A
:101C10000080002802DA404213A507E031688A07F5
:101C200001D512A502E0490704D511A5012401E060
:101C3000AFF3008000210A2206F1240709E0B0FB7F
:101C4000F2FCB0FBF2F302FB1C0030307854184673
:101C5000491C0028F3D123462A463046BDE8F0410E
:101C600000F00CB8000000002D0000002B00000068
:101C70002000000070477047704770472DE9F0471B
:101C80000D4699469246044600F1240801688806EC
:101C900004D5E06921F01001216000E00120A84294
:101CA00001DD471B00E00027A1697A1902EB09005A
:101CB000081AA0612078C00602D42046AFF3008045
:101CC000002608E0D4E901211AF806009047206AAE
:101CD000401C761C20624E45F4DB2078C0060AD5F5
:101CE0002046AFF3008006E0D4E901213020904780
:101CF000206A401C2062381EA7F10107F4DC07E0CF
:101D0000D4E9012118F805009047206A401C2062A0
:101D1000281EA5F10105F3DC2046AFF300802078F2
:101D2000000602D50220BDE8F0870120FBE7000095
:101D3000074B70B50D467B4400F011F80446284669
:101D400000F020F810B14FF0FF3070BD204670BD9C
:101D500005EFFFFF01694A1C02610878704700B572
:101D60008FB0CDE901310021059105497944CDE9D4
:101D7000031011466846FFF70DFF0FB000BD0000CD
:101D8000E5FFFFFF007B00F080007047754600F024
:101D900029F8AE4605006946534620F007008546FF
:101DA00018B020B5FFF7E4F8BDE820404FF000067A
:101DB0004FF000074FF000084FF0000B21F0070133
:101DC000AC46ACE8C009ACE8C009ACE8C009ACE876
:101DD000C0098D4670470446AFF300802046FEF7E9
:101DE000F3F9000000487047A80100200C1E00080D
:101DF00000000020E00000006C010008EC1E00085C
:101E0000E0000020280700008801000800A24A0422
:101E1000000000000000000001020304060708099A
:101E200000000000D5010008AA01A001020304057A
:101E30000607BB0033020008AA01B0010102030437
:101E40000506BB0083020008AA01C00101010102CE
:101E50000203BB00B1020008AA01D0010101010088
:101E60000000BB00CB020008AA01E001020202024E
:101E70000303BB00F9020008AA01F0000000000003
:101E80000000BB0029030008AA011001020304049A
:101E90000404BB00180000201D060008000000001C
:101EA0000000000000000000000000000000000032
:101EB0000000000000000000000000000000000022
:101EC0000000000000000000000000000038014099
:101ED00002010100000000000000010203040102F1
:0C1EE000030406070809020406080000BD
:0400000508000131BD
:00000001FF
