:020000040800F2
:10000000681B002009240008C10C0008C30C00086C
:10001000C70C0008CB0C0008CF0C00080000000043
:10002000000000000000000000000000D30C0008E9
:10003000D50C000800000000D70C0008D90C0008FF
:10004000232400082324000823240008B1120008F8
:100050002324000823240008232400082324000864
:100060002324000823240008190F00082324000873
:100070002324000823240008232400082324000844
:100080002324000823240008232400082324000834
:100090002324000823240008232400082324000824
:1000A0002324000823240008232400082324000814
:1000B0002324000823240008232400082324000804
:1000C00023240008232400082324000823240008F4
:1000D00023240008CF22000833230008232400082B
:1000E00023240008232400082324000800F002F839
:1000F00000F062F80AA090E8000C82448344AAF160
:100100000107DA4501D100F057F8AFF2090EBAE85D
:100110000F0013F0010F18BFFB1A43F0010318473B
:1001200060440000804400000A444FF0000C10F8C6
:10013000013B13F0070408BF10F8014B1D1108BF65
:1001400010F8015B641E05D010F8016B641E01F805
:10015000016BF9D113F0080F1EBF10F8014BAD1C55
:100160000C1B09D16D1E58BF01F801CBFAD505E073
:1001700014F8016B01F8016B6D1EF9D59142D6D3CD
:10018000704700000023002400250026103A28BFF5
:1001900078C1FBD8520728BF30C148BF0B607047F9
:1001A000642903F0BB84782903F0F48400207047AD
:1001B0001FB51FBD10B510BD03F0A4FD1146FFF71C
:1001C000F7FF00F04DFC03F0C2FD03B4FFF7F2FFB0
:1001D00003BC01F0D5FF000038B50446642094FB51
:1001E000F0F03030C0B28DF800000A2094FBF0F03F
:1001F0000A2190FBF1F201FB12003030C0B28DF801
:1002000001000A2094FBF0F100FB11403030C0B235
:100210008DF80200002506E01DF80510FD4802F0EB
:10022000BAF8681CC5B2032DF6DB38BD70B50446BC
:100230000D4694FBF5F005FB10463146F6A003F0A1
:100240002DFC70BD002003E0F64A1054411C88B21A
:10025000FF28F9DD704710B50446F3480480F348E1
:10026000007820B1F0480188F1A003F017FC10BD20
:1002700010B504461CB10120EC49087002E00020D2
:10028000EA49087001214FF0C05002F006FC01203D
:1002900002F065FFE54801780C2002F0E4FF002041
:1002A00002F05DFFE1480178E7A003F0F7FB10BD25
:1002B00010B501214FF0C05002F0EFFB012002F019
:1002C0004EFF0C2002F0DBFFD8490870002002F03E
:1002D00046FFD6480078012804D1D4480178DDA033
:1002E00003F0DCFB10BD08B500200323102204211D
:1002F0000090DC4801F05AFE012003231022402127
:100300000090D84801F052FE012003232822410327
:100310000090D54801F04AFE08BD10B50446D34907
:100320000C7001214FF0C05002F0B7FB012002F029
:1003300016FFCE480178082002F095FF002002F059
:100340000EFFBA480078012804D1C8480178C1A03E
:1003500003F0A4FB10BD10B501214FF0C05002F016
:100360009CFB012002F0FBFE082002F088FFBF4941
:100370000870002002F0F3FEAC480078012804D198
:10038000BA480178B3A003F089FB10BD10B500F0A6
:10039000CBFF04464EF61670844205D02246214615
:1003A000B3A003F07BFB04E022462146B7A003F094
:1003B00075FB10BD2DE9F04105460E4617461C465B
:1003C0003012B94908704E7038128870CF702016FC
:1003D00008712014487120128871CC714FF0000808
:1003E00009E0B14810F80810B0A003F057FB08F17D
:1003F000010000F0FF08B8F1080FF2DBA9A003F03C
:100400004DFBE9000822A84801F09EF887480078D3
:10041000012803D12946A6A003F040FBBDE8F081E6
:1004200070B50446E1000822A44800F0EAFF002568
:1004300006E0A248415DA24801F0ADFF681CC5B2CC
:10044000082DF6DB79480078012802D195A003F049
:1004500025FB76480078012803D1214694A003F0BB
:100460001DFB70BD10B501F0C6F896A003F016FB99
:1004700010BD2DE9F04100240025A04621E0002711
:1004800017E0002608E088488455214692A003F032
:1004900005FB601CC4B2761C082EF4D3E9000822C8
:1004A000814801F051F8294681A003F0F7FA6D1C4C
:1004B0007F1C202FE5D3394689A003F0EFFA08F11D
:1004C0000108594800888045D9D3414687A003F0E8
:1004D000E5FABDE8F08110B50446204601F014F8B5
:1004E00052480078012802D184A003F0D7FA10BD49
:1004F00010B501F092F810BD10B501F09DF810BDD7
:100500002DE9F041074600240025022001F01BFDE3
:1005100000BF20E04FF0000815E0E1000822674826
:1005200000F06FFF002605E06448815D78A003F0CD
:10053000B5FA761C082EF7D321465DA003F0AEFA7B
:10054000641C08F10108B8F1200FE6D3691C72A001
:1005500003F0A4FA6D1CBD42DCD3BDE8F0812DE9A7
:10056000F04100240025A04625E000271AE00026DF
:1005700009E04D488555294657A003F08FFA681CBD
:10058000C5B2701C86B2082EF3DBE1000822464893
:1005900001F061F8601CC4B2214662A003F07EFA4B
:1005A000781C87B2202FE2DB61A003F077FA08F114
:1005B00001001FFA80F81C4800888045D5DB5FA049
:1005C00003F06CFABDE8F08170B505460E4614469E
:1005D0005D48006840F6E571884213D35B480088A7
:1005E00000F092FF5948008801034FF480522E48D2
:1005F00000F0AAFF55480088401C5449088000209C
:100600005149086051480088B0F5006F00DD9FE057
:10061000A1E0000000440040C8A1D3E03D25640DE6
:100620000A00000008020020040000200C00002046
:10063000D0B4C8EBD2B3CAFDC9E8B6A8CEAA256427
:10064000D2B30D0A00000000646275673D25640D99
:100650000A000000B4FDBBFABCE4B8F43A2564C358
:10066000EB0D0A00000C0140001001401E000020AC
:10067000C6F7BCFECEB4D5D2B5BD2C49443D2578D5
:10068000282564292F722F6E00000000D2D1C1AC42
:10069000BDD3B5BD5732355136342C49443D25784C
:1006A000282564290D0A00000E00002025640000A2
:1006B000616464723D25640D0A000000160000208C
:1006C00000380140D5FBC6ACB2C1B3FDCDEAB3C919
:1006D000A3A10D0A000000006E756D3D25642C007D
:1006E000D0B4C8EB2564D2B30D0A0000D0B4C8EB77
:1006F0002564C9C8C7F8720A00000000C9C8C7F855
:10070000B2C1B3FDCDEAB3C9A3A10D0A0000000038
:100710006E756D3D25782C00B6C1B3F62564D2B355
:100720000D0A0000416464723D25640D0A0000005A
:10073000D2B3B1E0B3CC0D0A00000000C9C8B1E0EB
:10074000B3CC0D0A00000000240000202800002087
:10075000F6A003F0A3F9E8B20012F749F74A1268CD
:100760008854F6480068401CF4490860F249F34A8E
:1007700012688D54F1480068401CF0490860F0B2DE
:100780000012ED49ED4A12688854EC480068401C9C
:10079000EA490860F0B20012E749E84A1268885452
:1007A000E6480068401CE5490860E0B20116E248EE
:1007B000E24A12688154E1480068401CDF49086041
:1007C000E0B20014DC49DD4A12688854DB48006856
:1007D000401CDA490860E0B20112D748D74A1268D3
:1007E0008154D6480068401CD4490860D249D34A95
:1007F00012688C54D1480068401CD049086070BD14
:1008000010B501F01EFBCE490868CE4903F0CCFDBF
:10081000044603F095FDCC490880C9494868C94998
:1008200003F0C2FD044603F08BFDC8490880C848A8
:100830000078012806D108460288C3480188C5A06F
:1008400003F02CF910BD10B5C7480068B0F5004F93
:1008500002D90020C4490860C3480088C0F30800DA
:1008600078B9C1480068C0F34F2000F04DFEB84889
:100870000078012805D1BC4800684109BBA003F0FD
:100880000DF9FFF7BDFFB1480288AF480188BBA052
:1008900003F004F9AC4800880012A7490870AA4880
:1008A00000784870A948008800128870A74800782E
:1008B000C87002F031FD04462146B5A003F0EEF801
:1008C000200E9D490871200C4871200A8871CC7156
:1008D000A5480068C1000822974800F0C0FD9C4868
:1008E0000078012804D1A0480168ACA003F0D6F834
:1008F0009D480068401C9C4908609548007828B1D4
:1009000008460168AFF2582003F0C8F810BD10B5D2
:1009100004469548046001214FF0C05002F0BDF834
:10092000012002F01CFC9048008881B2102002F0E7
:100930009AFC002002F013FC85480078012804D1BD
:100940008948016899A003F0A9F810BD10B50121EC
:100950004FF0C05002F0A1F8012002F000FC10207E
:1009600002F08DFC80490860002002F0F8FB784816
:100970000078012804D17C4801688CA003F08EF82F
:1009800010BD10B500F077FF71480078012802D142
:100990008AA003F083F810BD10B58D4883784278A3
:1009A00001788CA003F07AF810BD10B501214FF04A
:1009B000C05002F072F8012002F0D1FB6A480088B2
:1009C00081B2102002F04FFC002002F0C8FB002092
:1009D0008549086085A003F061F8022002F016FD49
:1009E00002F0D6FC012002F0BAFB02F082FC02F019
:1009F000CFFC02F091FC824909784418204602F0AD
:100A0000AFFC02F0C5FC02F07DFC02F0C1FC00204E
:100A100002F0A5FB0121022002F05EFC02F0B8FC0E
:100A2000022001F090FA02F0C8FB10BD2DE9F0475A
:100A300006460F4690469946DDE9084571A003F049
:100A40002DF8BDE8F08710B501206F4908704FF40C
:100A500016516E4801F0A3FB022001F074FA10BD9C
:100A600000244FF4A06002F073FAFFF73CFC012071
:100A70005D4908604FF4E131654801F090FB4FF4A7
:100A80001651624801F08BFB01F020FA00F0F3FEF2
:100A900000F08FFB00F068FCFFF773FFFFF75BFCD3
:100AA000FFF754FF3048016841A002F0F7FFFFF75D
:100AB000C9FBE3E002F096FF012001F044FA641C58
:100AC0004FF4FA70B4FBF0F100FB114048B946480E
:100AD0001038006808B9012000E0002042491039B0
:100AE00008604C480068012802D14749087002E0BC
:100AF0000020454908704FF47A70B4FBF0F100FB18
:100B0000114020B9FFF79FFE43A002F0C7FF3E4807
:100B1000007850B94FF47A70B4FBF0F100FB11404B
:100B2000002801D1FFF741FFA8E081E0D2D1BEAD9E
:100B3000D0B4C2FA0D0A00000E00002024000020EC
:100B4000480000200000C8420000002002000020F1
:100B50000C000020CEC2B6C83D25642CCAAAB6C877
:100B60003D25640D0A00000020000020D5FDD4DAE8
:100B7000B2C1B3FD2564C9C8C7F80000CEC2B6C86B
:100B8000A3BA25642CCAAAB6C8A3BA25640D0A0064
:100B900074696D65723D25642C0D0A002564D0B41E
:100BA000C8EBCDEAB3C90D0A00000000BAF3B1B832
:100BB000616464723D25640D0A0000002048617282
:100BC000647761726520696E6974204F4B0D0A006D
:100BD0005C030020CAB1BCE4A3BA25643A25643A98
:100BE00025640D0A0000000098812142BDF8C8EB81
:100BF000B4FDBBFA2E2E2E2E2E2E200D0A00000044
:100C00001E000020620D0A000D0000206000002080
:100C10005800002034012242CAFDBEDDB1A3B4E673
:100C2000CDEAB3C9A3A1A3A1A3A10D0A00000000AE
:100C30001348008800F4004000B31248017812A065
:100C400002F02CFF0F480078312807D111A002F0E4
:100C500025FF13A1144801F0B7FB0AE0094800780A
:100C6000322806D111A002F019FF13A10E4801F09D
:100C7000ABFB002003490870014908801AE7000017
:100C80006A00002040140020736A64666C3D25648D
:100C9000000000006C616E79614F4B310D0A00005D
:100CA000434D44310D0A0000004400406C616E79F0
:100CB00061636D64320D0A006F6B320D0A00000033
:100CC000704700BFFEE700BFFEE700BFFEE700BFC2
:100CD000FEE7704770477047704700000CB5002072
:100CE000019000906C48006840F480306A490860C8
:100CF00000BF6948006800F4003000900198401C73
:100D00000190009818B90198B0F5A06FF1D1624830
:100D1000006800F4003010B10120009001E00020D4
:100D200000900098012843D15C48006840F0100012
:100D30005A4908600846006820F003000860084629
:100D4000006840F00200086053484068524948601B
:100D50000846406848600846406840F48060486043
:100D60000846406820F47C1048600846406840F41B
:100D7000E81048600846006840F08070086000BFD6
:100D80004548006800F000700028F9D042484068EB
:100D900020F00300404948600846406840F00200E7
:100DA000486000BF3C48406800F00C000828F9D1BA
:100DB0000CBD10B5FFF792FF10BD10B536480068A6
:100DC00040F0010034490860084640683449084052
:100DD0003149486008460068324908402E49086099
:100DE0000846006820F4802008600846406820F427
:100DF000FE0048604FF41F008860FFF7DAFF4FF0F5
:100E000000602949086010BD10B5002100200022B3
:100E1000214B5B6803F00C0121B1042906D008299D
:100E200028D107E0214B224C236027E01F4B204CA8
:100E3000236023E0184B5B6803F47010164B5B686B
:100E400003F48032022303EB904022B9194B434351
:100E5000174C23600DE0104B5B6803F4003323B1A3
:100E6000144B4343124C236003E0104B4343104C9C
:100E7000236003E00D4B0E4C236000BF00BF064B08
:100E80005B68C3F303130C4CE15C094B1B68CB405C
:100E9000074C236010BD00000010024000200240FB
:100EA0000000FFF8FFFFF6FE08ED00E000127A00F8
:100EB0002C00002000093D00300000201FB501205B
:100EC0000323482230210090194801F06FF80121D6
:100ED000084601F0D5FD0421012001F02BFC102073
:100EE000019001208DF80A0000208DF808000C20E8
:100EF0008DF8090001A802F0A7F80A208DF80C006F
:100F000001208DF80F0002208DF80D008DF80E00E5
:100F100003A802F022F81FBD10B5102002F0FAF865
:100F200028B1012003490870102002F004F910BD17
:100F3000000C01404000002008B503208DF800009F
:100F400000208DF801008DF8020001208DF80300CB
:100F5000684602F002F808BDF0B503460C46154697
:100F6000642093FBF0F0C6B2642093FBF0F700FB23
:100F70001730C1B2132E02DD01F16400C1B2084680
:100F8000CF1701EB977701EBA707BAB2072092FBC7
:100F9000F0F700FB172082B25719601EDFF838C344
:100FA0001CF80000384482B2CF1701EB9777BF10CE
:100FB000A1EB87071FB9032C01DA501E82B207206C
:100FC00092FBF0F700FB1720C0B2F0BD0146CA1734
:100FD00001EB92729210A1EB820292B9642091FB14
:100FE000F0F200FB121050B94FF4C87091FBF0F210
:100FF00000FB121008B9012070470020FCE7012017
:10100000FAE70020F8E770B500260024002502F07A
:1010100083F90646B148B6FBF0F4B1480088A04217
:101020003CD0AF490C8040F2B27510E02846FFF783
:10103000CDFF40B1B4F5B77F02D3A4F5B77404E097
:10104000681C85B206E0A4F26D14681C85B2B4F584
:10105000B67FEBD800BFA3488580002516E0A149E4
:101060008888FFF7B3FF30B1012D04D11D2C01D3C7
:101070001D3C09E00CE09C48405DA04203D89A4822
:10108000405D241A00E003E0681C85B21C2CE6D207
:1010900000BF681C93498871601CC8718F48B6FBFB
:1010A000F0F100FB11644FF46160B4FBF0F08D4986
:1010B00008704FF46160B4FBF0F100FB11403C217B
:1010C000B0FBF1F0874948704FF46160B4FBF0F178
:1010D00000FB11403C21B0FBF1F201FB1200814901
:1010E00088700B46DA7999799888FFF735FF7D4942
:1010F0000872002070BD2DE9F05F06460F4690464D
:101100009946DDE90AAB002440F2B270864203DB67
:1011100040F63300864202DD0120BDE8F09F40F238
:10112000B2750AE02846FFF751FF10B16F4804443A
:1011300001E06F480444681C85B2B542F2DB781EBA
:10114000C7B2002510E06848405D40F2A321484343
:1011500004EBC0143046FFF739FF18B1012D01D15F
:101160005E480444681C85B2BD42ECDBA8F1010076
:1011700040F2A321484304EBC014C9EB4910C0EB73
:10118000092004EB0014CAEB0A1004EB80045C4451
:1011900001214FF0C05001F080FC012001F0DFFF81
:1011A000204602F0C2F802F0F3F8FFF72CFF00200F
:1011B000B3E71CB5002401214FF0C05001F06DFCD5
:1011C000012001F0CCFF012001F0D8FF042002F043
:1011D00056F845F25201884244D046A002F05EFC27
:1011E00002F018F8012001F0B8FB04E0601CC4B262
:1011F0000A2000F0A8FE412001F017FB0028F5D0DE
:10120000FA2C01DB01201CBD4FF4807001F0C1FB02
:10121000012001F0C4FB02F0BBF802F0C2F801218A
:10122000084602F059F802F0B3F802F062F847F607
:10123000FF7002F087F802F0ABF837200A210D2387
:101240000B22CDE9001040F2E470FFF754FF02F0EA
:1012500059F845F25201042002F005F8012001F08E
:101260007EFF1FE0022001F0BDFF78B125A002F053
:1012700015FC022001F0C0FF0121084602F02CF805
:1012800002F086F8002001F06AFF0BE022A002F0D5
:1012900005FC0121084602F01FF802F079F8002051
:1012A00001F05DFFFFF748FEFFF7ADFE0020AAE763
:1012B00010B5012002F09AF808B1FFF7A4FE022051
:1012C00002F094F810B1022002F0A0F8052002F01C
:1012D0009DF802F05DF810BD404500088051010006
:1012E000420000205C0300204C4500080085E2011C
:1012F0008033E101B5DAD2BBB4CEC6F4B6AFA3A158
:101300000D0A0000B4D3B4FDBBFAD6D0BBBDD0D11A
:10131000A3A10D0A00000000D5FDB3A3C6F4B6AF2B
:10132000A3A10D0A0000000010B500240020F94917
:101330000860902000F02CFA002000F029FA00202C
:1013400000F026FA002000F023FAFF2000F020FA37
:1013500044EA0024FF2000F01BFA04430120EE4978
:10136000C1F89001204610BD08B5012003231022CA
:1013700011460090E94800F019FE00F030FA08200C
:1013800000F063FAFFF7D0FFE549088008BD10B50B
:1013900000240020DF490860052000F0F9F9FF2053
:1013A00000F0F6F904460120DB49C1F8900120461F
:1013B00010BD10B504460020D6490860012000F099
:1013C000E7F9204600F0E4F90120D349C1F8900183
:1013D00010BD10B50020CF490860062000F0D8F9F4
:1013E0000120CD49C1F8900110BD10B50020C949B8
:1013F0000860042000F0CCF90120C749C1F8900131
:1014000010BD2DE9F04106460C4617460020C149A3
:101410000860032000F0BCF9C4F3074000F0B8F9FD
:10142000C4F3072000F0B4F9E0B200F0B1F90025F0
:1014300005E0FF2000F0ACF97055681C85B2BD4294
:10144000F7DB0120B3490860BDE8F08110B500BFAB
:10145000FFF79DFF00F001000028F9D110BD2DE934
:10146000F04106460C461746FFF7B3FF0020A94996
:101470000860022000F08CF9C4F3074000F088F9FE
:10148000C4F3072000F084F9E0B200F081F90025F0
:101490000EE0705D00F07CF94FF0000803E008F109
:1014A00001001FFA80F8B8F1020FF8DB681C85B262
:1014B000BD42EEDB012097490860FFF7C7FFBDE89A
:1014C000F0812DE9F04107460E461446F0B2C0F512
:1014D0008075AC4200DC254612E02A46314638468B
:1014E000FFF7BDFFAC4200D10BE02F442E44601B40
:1014F00084B2B4F5807F02DD4FF4807500E02546AC
:10150000EBE700BFBDE8F08110B504464FF6FF7071
:1015100000EA0434FFF75DFFFFF798FF00207D49E4
:101520000860202000F034F9201400F031F9201276
:1015300000F02EF9E0B200F02BF901207649C1F855
:101540009001FFF783FF10BD2DE9F04781460F465C
:1015500016464FEA1738C7F30B0ACAF58054A6425D
:1015600000DC344643E04FEA08314FF480526D48C6
:10157000FFF747FF002507E00AEB05006949085C13
:10158000FF2800D002E06D1CA542F5D300BFA542A4
:1015900016D21FFA88F0FFF7B7FF002506E019F80A
:1015A000050005EB0A015F4A50546D1CA542F6D3B5
:1015B0004FEA083140F6E5725A48FFF782FF04E02F
:1015C000224639464846FFF77CFFA64200D10FE08D
:1015D00008F101084FF0000AA1442744301B86B2ED
:1015E000B6F5805F02DD4FF4805400E03446BAE780
:1015F00000BFBDE8F08710B5FFF7EBFEFFF726FF51
:10160000002044490860C72000F0C2F80120424988
:10161000C1F89001FFF71AFF10BD10B500203D4939
:101620000860B92000F0B4F801203B49C1F89001EE
:10163000032000F064FC10BD10B50020354908609F
:10164000AB2000F0A5F801203349C1F89001032038
:1016500000F055FC10BD2DE9F05F07460E4614461C
:101660004FF00008C146C2460025AB4606F0FF0A0F
:10167000CAF10000C5B22046E11704EB1161C1F3C5
:101680000728E11704EB11610912A4EB012101F015
:10169000FF09BAF1000F20D1B8F1000F05D12246A1
:1016A00031463846FFF7DBFE6FE009E04FF4807209
:1016B00031463846FFF7D3FE06F5807607F580778A
:1016C0005FEA0800A8F1010101F0FF08EED14A46E7
:1016D00031463846FFF7C3FE57E0B8F1000F23D17B
:1016E000A94510DDA9EB050000F0FF0B2A463146A5
:1016F0003846FFF7B4FE2E442F445A46314638464A
:10170000FFF7ADFE41E0224631463846FFF7A7FE1F
:101710003BE000009001214200002142000801400E
:101720004400002066030020601B84B22046E117BD
:1017300004EB1161C1F30728E11704EB11610912F1
:10174000A4EB012101F0FF092A4631463846FFF794
:1017500086FE2E442F4409E04FF48072314638460D
:10176000FFF77DFE06F5807607F580775FEA0800D3
:10177000A8F1010101F0FF08EED1B9F1000F04D08A
:101780004A4631463846FFF76AFEBDE8F09F000042
:1017900070B50546002405E0601CC4B2C82C01DD0C
:1017A000002070BD02212F4801F089FF0028F3D0EE
:1017B00029462C4801F030FF002405E0601CC4B22B
:1017C000C82C01DD0020ECE70121264801F077FF5D
:1017D0000028F3D0234801F021FFC0B2E1E708B5AB
:1017E000012141F2040001F04BF9E020ADF80000C6
:1017F00018208DF8030003208DF8020069461A486E
:1018000000F082FEE021184800F02BFF002017496D
:1018100008804FF482704880002088800220C880B1
:101820000120088140024881382088810020C88139
:10183000072008820B4801F019FE0121094801F038
:10184000BAFEFF20FFF7A4FF08BD10B50446074805
:1018500084810146034801F009FE0121014801F09D
:10186000AAFE10BD003001400008014066130020B0
:10187000F9490880704708B5012003231422190292
:101880000090F64800F092FB0520FFF7F1FF4FF4BF
:101890008071F24800F0E5FE4FF40071EF4800F06F
:1018A000E0FE08BD10B54FF48071EC4800F0D9FEA1
:1018B0004FF40071E94800F0D4FEE749088800F0D1
:1018C0001EFB4FF48071E54800F0CDFEE249088828
:1018D00000F015FB4FF40071E04800F0C4FE10BDAD
:1018E00010B54FF48071DD4800F0BDFE4FF400717B
:1018F000DA4800F0B8FED849088800F000FB4FF441
:101900000071D64800F0ADFE4FF48071D34800F06E
:10191000A8FED149088800F0F2FA10BD10B50446BF
:101920004FF48071CD4800F09CFECB49088800F050
:10193000E6FA4FF40071C94800F093FEC6490888E2
:1019400000F0DDFA0DE0601E040006D1C4A002F034
:10195000A5F8FFF7C5FF012010BDBF49088800F0BA
:10196000CEFA4FF48071BD4800F061FE0028EAD144
:101970004FF40071B94800F076FE0020ECE710B596
:101980004FF40071B54800F06EFE4FF48071B3481B
:1019900000F069FEB049088800F0B1FA4FF4007118
:1019A000AE4800F05EFEAC49088800F0A8FA4FF49B
:1019B0000071AA4800F057FE10BD10B54FF4007139
:1019C000A64800F050FE4FF48071A44800F049FE94
:1019D000A149088800F093FA4FF400719F4800F085
:1019E00040FE9D49088800F08AFA4FF400719B4838
:1019F00000F039FE10BD70B5044600254FF40071AB
:101A0000964800F030FE23E004F0800028B14FF447
:101A10008071924800F025FE04E04FF480718F48F9
:101A200000F021FE6006040E8B49088800F067FA7A
:101A30004FF40071894800F014FE8749088800F0CF
:101A40005EFA4FF40071854800F00DFE681CC5B2C7
:101A5000082DD9DB70BD70B5002500244FF48071CE
:101A60007E4800F0FEFD1DE04FF400717B4800F061
:101A7000FAFD7949088800F042FA4FF4007177487E
:101A800000F0EFFD6006040E4FF48071734800F023
:101A9000CEFD08B1601CC4B26F49088800F02FFA6F
:101AA000681CC5B2082DDFDB204670BD2DE9F04172
:101AB00005460E46144600276806070EFFF7F2FE9D
:101AC0003846FFF798FF41F28830FFF727FF10B143
:101AD0000120BDE8F0813046FFF78DFF41F28830EC
:101AE000FFF71CFF08B10120F3E74CB12078FFF7A6
:101AF00082FF41F28830FFF711FF08B10120E8E7CB
:101B0000FFF7EEFE0020E4E72DE9F04104460D4624
:101B1000164600276006070EFFF7C4FE3846FFF79B
:101B20006AFF41F28830FFF7F9FE10B10120BDE8ED
:101B3000F0812846FFF75FFF41F28830FFF7EEFEA5
:101B400008B10120F3E7FFF7ADFE791CC8B2FFF73B
:101B500052FF41F28830FFF7E1FE08B10120E6E7CD
:101B6000FFF779FF3070FFF728FFFFF7B9FE00207D
:101B7000DDE72DE9F04105460E4614461F464FF0BD
:101B8000000868064FEA1068FFF78CFE4046FFF732
:101B900032FF41F28830FFF7C1FE10B10120BDE8ED
:101BA000F0813046FFF727FF41F28830FFF7B6FE9D
:101BB00008B10120F3E70DE02078FFF71CFF41F2A8
:101BC0008830FFF7ABFE08B10120E8E7641C0A206B
:101BD00000F095F93800A7F10101CFB2ECD1FFF781
:101BE0007FFE0020DBE72DE9F04106460F46144654
:101BF0001D464FF000084FEA4608FFF753FE08F075
:101C0000FF00FFF7F8FE41F28830FFF787FE10B1C2
:101C10000120BDE8F0813846FFF7EDFE41F2883043
:101C2000FFF77CFE08B10120F3E7FFF73BFE08F168
:101C30000101C8B2FFF7DFFE41F28830FFF76EFE08
:101C400008B10120E5E717E0FFF705FF2070641CED
:101C500085B9FFF7B2FE0FE046000020000C0140FE
:101C60005761697441636B2054696D654F75740DDC
:101C70000A000000FFF783FE2800A5F10101CDB2A4
:101C8000E2D1FFF72DFE0020C3E7000010B50022CF
:101C9000FE214020FFF70AFF10BD08B5002000908C
:101CA0006A46E7214020FFF72FFF9DF8000008BD9E
:101CB00070B503460C46154600210026002200BFE1
:101CC00013E0985C414008260BE001F0800020B151
:101CD000312080EA4100C1B201E04806010E701EC9
:101CE000C6B2002EF1DC501CC2B2A242E9DBA9420E
:101CF00001D0012070BD0020FCE72DE9F84F82469D
:101D00004FF0000B2AF0030A504602F039FB009016
:101D100002F0EAFA8046654A654B02F0FDF8064695
:101D2000644A654B02F050F8044602F01BF8834603
:101D30005846BDE8F88F2DE9F84F82464FF0000B6A
:101D40002AF0030A504602F01BFB009002F0CCFA86
:101D500080465A4A5A4B02F0DFF806460022594B99
:101D600002F0D8F9044601F0FDFF83465846BDE86D
:101D7000F88F2DE9F84306460C4600270025A846B3
:101D8000A9468025FFF78EFD2846FFF734FE4CF26A
:101D90005030FFF7C3FD10B10020BDE8F883304696
:101DA000FFF729FE4CF25030FFF7B8FD08B10020D4
:101DB000F3E7FFF777FD691CC8B2FFF71CFE05E0EB
:101DC000FFF770FD691CC8B2FFF715FE4CF25030EA
:101DD000FFF7A4FD0028F3D14B2000F0B4F8FFF783
:101DE0003AFE8DF80000FFF7CAFDFFF734FE8DF8CC
:101DF0000100FFF7C4FDFFF72EFE0746FFF7DDFDEC
:101E0000FFF76EFD3A4602216846FFF751FF9DF845
:101E100001009DF8001000EB01201FFA80F8E32E6E
:101E200004D14046FFF769FF814603E04046FFF7D3
:101E300082FF81461CB1484602F082FA2080484663
:101E4000ABE708B5002000900520FFF711FDFFF774
:101E500024FF642000F053F80021E320FFF789FFFE
:101E6000194908604B2000F06EF80021E520FFF7CB
:101E700080FF154948601E2000F065F8FFF70DFF50
:101E80001E2000F060F86A46E6214020FFF70EFEB3
:101E9000642000F034F8FFF700FF642000F02FF812
:101EA000FFF7F4FE642000F02AF808BDD7A3703DC8
:101EB0000AF7653FCDCCCCCCCC6C47C07644CF770D
:101EC00001405F3F000018404800002010B56FF04F
:101ED000040001F08CF82E4800682E49B0FBF1F0A8
:101EE0002D4908700846007800EB4001C1EBC01096
:101EF0004FF6FF7101EAC0002849088010BD014675
:101F0000254A12784A434FF0E0235A6100229A6131
:101F10001A46126942F001021A6100BF4FF0E02236
:101F2000106900F001021AB100F48032002AF5D0E5
:101F30004FF0E022126922F001024FF0E0231A6113
:101F400000229A6170470146144A12884A434FF0B2
:101F5000E0235A6100229A611A46126942F0010296
:101F60001A6100BF4FF0E022106900F001021AB1BF
:101F700000F48032002AF5D04FF0E022126922F0FE
:101F800001024FF0E0231A6100229A6170470000BD
:101F90002C00002000127A00500000205200002087
:101FA00030BF704772B6704762B670472DE9F8438C
:101FB00004460D4616461F46DDF8208069488442D7
:101FC0001AD10121042000F05BFDADF800508DF81E
:101FD00003608DF802706946204600F095FAB8F16A
:101FE000000F04D02946204600F03BFBB7E029460D
:101FF0005C4800F038FBB2E05B4884421AD1012112
:10200000082000F03DFDADF800508DF803608DF81C
:1020100002706946204600F077FAB8F1000F04D04C
:102020002946204600F01DFB99E029464E4800F065
:102030001AFB94E04D4884421AD10121102000F08F
:102040001FFDADF800508DF803608DF802706946F1
:10205000204600F059FAB8F1000F04D02946204676
:1020600000F0FFFA7BE02946404800F0FCFA76E0F9
:102070003F4884421AD10121202000F001FDADF833
:1020800000508DF803608DF802706946204600F01C
:102090003BFAB8F1000F04D02946204600F0E1FADF
:1020A0005DE02946324800F0DEFA58E031488442CB
:1020B0001AD10121402000F0E3FCADF800508DF86A
:1020C00003608DF802706946204600F01DFAB8F1F1
:1020D000000F04D02946204600F0C3FA3FE029460D
:1020E000244800F0C0FA3AE0234884421AD1012182
:1020F000802000F0C5FCADF800508DF803608DF82D
:1021000002706946204600F0FFF9B8F1000F04D0D4
:102110002946204600F0A5FA21E02946164800F09D
:10212000A2FA1CE01548844219D10121801500F063
:10213000A7FCADF800508DF803608DF80270694679
:10214000204600F0E1F9B8F1000F04D029462046FE
:1021500000F087FA03E02946084800F084FABDE859
:10216000F883000000080140000C0140001001400D
:102170000014014000180140001C014000200140F3
:10218000014600BF704700BF964A128802F0400225
:10219000002AF9D0C2B2934B1B1D1A80704730B58C
:1021A00087B004460D468F49206888421AD1012124
:1021B000880300F065FC8B4800F0C6FC0120032377
:1021C0001822410200908848FFF7F0FE0120032307
:1021D0000422810200908448FFF7E8FE25208DF854
:1021E00008003CE08149206888421AD10121480456
:1021F00000F053FC7D4800F0A7FC012003231822C7
:10220000042100907848FFF7D1FE01200323042227
:10221000082100907448FFF7C9FE26208DF80800B9
:102220001DE073492068884219D10121880400F01B
:1022300034FC6F4800F088FC01200323182281023F
:1022400000906C48FFF7B2FE012003230422C10274
:1022500000906848FFF7AAFE27208DF80800207933
:102260008DF8090060798DF80A0001208DF80B00C7
:1022700002A800F072FE03950020ADF81000ADF842
:102280001200ADF81400ADF818000C20ADF81600DF
:1022900003A9206800F09BFCA07930B9002240F22D
:1022A0002441206800F02BFD05E0012240F224418A
:1022B000206800F024FD012240F22551206800F042
:1022C0001EFD0121206800F00EFD07B030BD70B585
:1022D000002400BF40F22551424800F0F5FDA0B1B6
:1022E00040F225513F4800F019FE3E4800F06CFDD9
:1022F000C4B241480088C0F30D0040490C543E4828
:102300000088401C3C49088012E040F224413548D6
:1023100000F0DAFD60B133480088C5B23148001DD5
:102320000088C5B23448008840F400403249088033
:1023300070BD70B5002400BF40F225512B4800F05D
:10234000C3FDA0B140F22551284800F0E7FD274821
:1023500000F03AFDC4B22A480088C0F30D002949B4
:102360000C5427480088401C2549088012E040F2A0
:1023700024411E4800F0A8FD60B11C480088C5B289
:102380001A48001D0088C5B21D48008840F400406E
:102390001B49088070BDC1F30802828000BF02881B
:1023A00002F04002002AFAD0704730B505460B46CD
:1023B000144606E013F8011B2846FFF7ECFF601EE9
:1023C000C4B2002CF6DC30BD10B504460B4604E068
:1023D00013F8011B2046FFF7DEFF18780028F7D11D
:1023E00010BD0000003801400008014000440040DA
:1023F00000480040000C01406800002078130020D5
:102400006A0000204014002009488047094800471E
:10241000FEE7FEE7FEE7FEE7FEE7FEE7FEE7FEE794
:10242000FEE7FEE704480549054A064B70470000F1
:10243000BB0D0008ED00000868150020681B002097
:10244000681700206817002010B50446CC48844265
:1024500008D10121042000F02DFB0021042000F010
:1024600029FB46E0C748844208D10121082000F03A
:1024700021FB0021082000F01DFB3AE0C248844205
:1024800008D10121102000F015FB0021102000F0E0
:1024900011FB2EE0BD48844208D10121202000F02C
:1024A00009FB0021202000F005FB22E0B84884420F
:1024B00008D10121402000F0FDFA0021402000F069
:1024C000F9FA16E0B348844208D10121802000F0D7
:1024D000F1FA0021802000F0EDFA0AE0AE488442D3
:1024E00007D10121801500F0E5FA0021A01500F0C8
:1024F000E1FA10BD10B50121084600F0DBFA002119
:10250000012000F0D7FA10BD2DE9F0410246002568
:102510000026002000230024002791F803C00CF0BF
:102520000F0591F803C00CF0100CBCF1000F03D0A4
:1025300091F802C04CEA050591F800C0BCF1000F0B
:1025400031D0146800202BE04FF0010C0CFA00F39E
:10255000B1F800C00CEA03069E4220D183004FF080
:102560000F0C0CFA03F7BC4305FA03FC4CEA040415
:1025700091F803C0BCF1280F06D14FF0010C0CFA02
:1025800000FCC2F814C00AE091F803C0BCF1480F87
:1025900005D14FF0010C0CFA00FCC2F810C0401C31
:1025A0000828D1D31460B1F800C0BCF1FF0F34DDAE
:1025B000546800202EE000F1080C4FF0010808FAE2
:1025C0000CF3B1F800C00CEA03069E4221D183004F
:1025D0004FF00F0C0CFA03F7BC4305FA03FC4CEA6E
:1025E000040491F803C0BCF1280F05D100F1080CD8
:1025F00008FA0CF8C2F8148091F803C0BCF1480F37
:1026000007D100F1080C4FF0010808FA0CF8C2F8E5
:102610001080401C0828CED35460BDE8F0814FF6EE
:10262000FF710180022181700421C1707047024650
:10263000002093680B400BB1012000E000207047A0
:102640000146886880B2704702460020D3680B407C
:102650000BB1012000E0002070470146C86880B23D
:10266000704701617047416170470AB1016100E044
:1026700041617047C16070474FF480320A43826104
:102680008161826182698269704702460020434B02
:1026900018684FF68073184040EA021008433F4B19
:1026A000186070473E49C8617047F0B50A4600237C
:1026B00000240021002500F00046B6F1004F02D1B1
:1026C000364EF16901E0354E7168C0F3034583B2BF
:1026D00000F44016B6F5401F08D121F070612F4E6E
:1026E000766826F070662D4F7E6012E000F480164A
:1026F000B6F5801F06D1032606FA05F4A14341F082
:10270000706106E0460D360103FA06F6B14341F06A
:10271000706122B1460D360103FA06F6314300F02E
:102720000046B6F1004F02D11C4EF16101E01B4E94
:102730007160F0BD30B500228B071C0F0F2303FA28
:1027400004F2164B08338C1053F824309343134C87
:1027500008348D1044F8253023468C1053F824306B
:102760008C07240F00FA04F423430C4C08348D101A
:1027700044F8253030BD0A49DC310860704700005C
:1027800000080140000C014000100140001401400D
:1027900000180140001C01400020014000000140E1
:1027A00000002042DF48006840F00100DD49086079
:1027B00008464068DC490840DA4948600846006835
:1027C000DA490840D74908600846006820F48020AC
:1027D00008600846406820F4FE0048604FF41F007F
:1027E00088607047CF49096821F48031CD4A116073
:1027F0001146096821F480211160B0F5803F03D0B3
:10280000B0F5802F0ED106E0C649096841F4803149
:10281000C44A116007E0C349096841F4A021C14AD4
:10282000116000E000BF00BF704710B501460022F4
:10283000002300204A11012A02D1BA4C236806E085
:10284000022A02D1B74C236A01E0B64C636A01F058
:102850001F02012494401C400CB1012000E0002024
:1028600010BD38B5002000900024002500BF3120A5
:10287000FFF7DBFF05460098401C00900098B0F57C
:10288000A06F01D0002DF2D03120FFF7CEFF08B1AC
:10289000012400E00024204638BD01460020A14A62
:1028A000106820F0F80040EAC10010607047A049AD
:1028B00008607047024600209A4B586820F47C104C
:1028C00042EA01031843974B5860704798490866DD
:1028D000704701460020934A506820F003000843E7
:1028E000506070478F48406800F00C007047014608
:1028F00000208C4A506820F0F00008435060704778
:1029000001460020874A506820F4E0600843506088
:10291000704701460020834A506820F4605040EA26
:10292000C1005060704729B17E4A527A02437D4B04
:102930005A7204E07B4A527A82437A4B5A72704749
:102940007B49D8310860704701460020754A5068BD
:1029500020F440400843506070470021714A203203
:102960001170704A82F82010012802D004280AD180
:1029700004E001216B4A2032117005E00521694A0B
:102980002032117000E000BF00BF70476949086045
:1029900070476449096A0143624A11627047654998
:1029A00044390860704730B500210022002400231C
:1029B0005C4D6D6805F00C0121B1042905D0082992
:1029C00023D105E05C4D056022E05B4D05601FE012
:1029D000544D6D6805F47012524D6D6805F48034E5
:1029E000022505EB92421CB9544D554305600BE09E
:1029F0004C4D6D6805F400351DB1504D55430560D3
:102A000002E04D4D5543056002E04B4D056000BFAF
:102A100000BF444D6D6805F0F0010909484D6B5C3D
:102A20000568DD4045603F4D6D6805F4E061090AC9
:102A3000434D6B5C4568DD4085603A4D6D6805F43B
:102A40006051C90A3E4D6B5C4568DD40C560354D3F
:102A50006D6805F44041890B3A4D6B5CC568B5FB68
:102A6000F3F5056130BD29B12E4A526902432D4B61
:102A70005A6104E02B4A526982432A4B5A617047DB
:102A800029B1284A92690243264B9A6104E0254AFB
:102A900092698243234B9A61704729B1214AD269D6
:102AA0000243204BDA6104E01E4AD26982431D4B87
:102AB000DA61704729B11B4AD2680243194BDA60C8
:102AC00004E0184AD2688243164BDA60704729B195
:102AD000144A12690243134B1A6104E0114A126945
:102AE0008243104B1A6170471249403908607047A1
:102AF0000F49C86470470B49C87170470948406A5C
:102B000040F0807007494862704701460020054A3E
:102B100092680A400AB1012000E000207047014994
:102B200088727047001002400000FFF8FFFFF6FEB9
:102B3000000042428004424200127A0000093D0037
:102B40006C0000207C00002010B50446FB48844245
:102B500009D101218803FFF7ADFF00214FF4804028
:102B6000FFF7A8FF32E0F648844209D1012148046A
:102B7000FFF7ADFF00214FF40030FFF7A8FF25E07D
:102B8000F048844209D101218804FFF7A0FF002109
:102B90004FF48020FFF79BFF18E0EB48844209D1F7
:102BA0000121C804FFF793FF00214FF40020FFF735
:102BB0008EFF0BE0E548844208D101210805FFF7AC
:102BC00086FF00214FF48010FFF781FF10BD2DE933
:102BD000F04786B005460E460024A24600BFA14637
:102BE0000027B08900B100BF2F462C8A4CF6FF7039
:102BF0000440F08804432C82AC894EF6F310044064
:102C0000B08831890843718908430443AC81AC8A98
:102C10004FF6FF400440B0890443AC8201A8FFF79F
:102C2000C2FEC648874202D1DDF810A001E0DDF8FF
:102C30000CA0A88900F4004040B10AEBCA0000EBE8
:102C40000A1031684900B0FBF1F807E00AEBCA004E
:102C500000EB0A1031688900B0FBF1F86420B8FB82
:102C6000F0F004012009642101FB1089A88900F417
:102C7000004040B1322000EBC900B0FBF1F000F0A1
:102C80000700044308E0322000EB09106421B0FB88
:102C9000F1F000F00F0004432C8106B0BDE8F0878E
:102CA0004FF41651016000218180C18001810C2107
:102CB000418100218181704710B502460020108AB1
:102CC0004FF2FF0318400B884C8823438C88234322
:102CD000CC8823431843108210BD0021018041801D
:102CE0008180C180704721B1828942F40052828183
:102CF00004E082894DF6FF731A4082817047F0B577
:102D00000346002400260025002040F66A17B94239
:102D100000D100BF1846C1F3421401F01F0601277D
:102D200007FA06F5012C01D10C3004E0022C01D188
:102D3000103000E014301AB107682F43076002E03A
:102D40000768AF430760F0BD1AB1838A0B438382E3
:102D500002E0838A8B4383827047028A4FF6F073C6
:102D60001A400282028A0A430282704782894FF225
:102D7000FF731A40828182890A438281704721B1A0
:102D8000828942F00202828104E082894FF6FD735B
:102D90001A4082817047028A4FF6DF731A4002821E
:102DA000028A0A430282704721B1028A42F48042B9
:102DB000028204E0028A4BF6FF731A4002827047D7
:102DC000C1F308028280704701468888C0F308007A
:102DD0007047818941F0010181817047028BD2B235
:102DE0000283028B42EA012202837047028B02F4C3
:102DF0007F420283028B0A430283704721B1828A99
:102E000042F02002828204E0828A4FF6DF731A4089
:102E10008282704721B1828A42F01002828204E0ED
:102E2000828A4FF6EF731A408282704721B1828AFC
:102E300042F00802828204E0828A4FF6F7731A4059
:102E40008282704721B1828942F40042828103E08C
:102E50008289C2F30E028281704721B1828A42F4D4
:102E60000062828204E0828A4FF2FF731A408282FB
:102E70007047828A4FF6FB731A408282828A0A4325
:102E80008282704721B1828A42F00202828204E08B
:102E9000828A4FF6FD731A408282704702460020F4
:102EA000B1F5007F00D100BF13880B400BB10120AA
:102EB00000E00020704701F40072B2F5007F00D1FD
:102EC00000BFCA430280704770B502460024002349
:102ED0000025002040F66A16B14200D100BFC1F3C0
:102EE000421501F01F03012606FA03F3012D02D15A
:102EF0009689334006E0022D02D1168A334001E064
:102F0000968A33400C12012606FA04F416883440DF
:102F100013B10CB1012000E0002070BD10B50022FB
:102F2000002340F66A14A14200D100BF0A12012416
:102F30009440A3B2DC43048010BD0000003801407F
:102F40000044004000480040004C00400050004059
:102F500031490143314A1160704770B500210023A7
:102F60000F22C47804B32D4C246804F4E064C4F543
:102F7000E064210AC1F10403CA40447804FA03F171
:102F80008478144021430901254C0678A155047822
:102F900004F01F050124AC4005786D11AD0005F16A
:102FA000E025C5F8004109E0047804F01F0501247C
:102FB000AC401C4D0678761145F8264070BD1A4A83
:102FC0000A400243154B1B1F1A60704739B1134A60
:102FD000121D12680243114B1B1D1A6006E00F4AB6
:102FE000121D126882430D4B1B1D1A607047042886
:102FF00008D14FF0E021096941F004014FF0E022CF
:10300000116107E04FF0E021096921F004014FF060
:10301000E0221161704700000000FA050CED00E0AD
:1030200000E400E080E100E080FFFF1F0020444951
:103030000860091D0860091D0860091D08604148F5
:103040003F4914310860704700213D498279002AC8
:103050003AD00A46126803689A430B461A600A1D62
:10306000126803689A430B1D1A60027911440A68BA
:1030700003681A430A60324A0832126803689A43A6
:103080002F4B08331A601A1D126803689A432C4BA1
:103090000C331A604279102A0ED11A1F1268036885
:1030A0001A43274B08331A601A1D126803681A4323
:1030B000234B0C331A600DE02149427911440A6810
:1030C00003681A430A6005E0027911440A6803683C
:1030D0009A430A6070470021016001710C2141711F
:1030E0000021817170471649103109680143144A63
:1030F00010321160704701460020114A14321268E4
:103100000A400AB1012000E0002070470C49143148
:1031100008607047014600200022094B1B6803EA43
:103120000102074B14331B680B4013B10AB1012095
:1031300000E0002070470249143108607047000029
:1031400000040140FFFF0F0010B501210807FFF741
:10315000BEFC00214FF08050FFF7B9FC10BD2A499A
:103160000862704728490861704701460020274AD5
:10317000106820F0E0000843106070472249A03139
:103180000860704710B502460020204B186820F0F8
:103190000300104318601E4B1B6843F004031C4CD3
:1031A0002360012901D130BF00E020BF184B1B680C
:1031B00023F00403164C236010BD1448006840F04F
:1031C0000400124908600846006840F002000860E8
:1031D0000F48006840F004000D49086000BF00BFC0
:1031E00030BF704701460020084A52680A400AB1C1
:1031F000012000E0002070470449096841EA80018D
:10320000024A11607047000000000E42007000404A
:1032100010ED00E010B50120FFF766FC0020FFF77D
:1032200063FC10BD2A49086070472949091F0860DE
:103230007047274984310860704701460020254ABD
:1032400010884FF67F4210400843224A1080704792
:10325000014600201F4A10884FF680721040084334
:103260001C4A1080704708B500220092194A2C3A77
:103270000092009A02440092009A116008BD08B5BD
:1032800001460020009013482C3800900098084414
:1032900000900098008808BD0D489C300068C0B2BE
:1032A00070470C480830008840F001000949083197
:1032B000088070470648A0300068C0B270470548D3
:1032C0000830008840F00200024908310880704749
:1032D00004860D422C6C004029B1504A12880243EA
:1032E0004E4B1A8004E04D4A128882434B4B1A80A1
:1032F00070474A48001D008840F010004749091DEA
:10330000088070474548001D00884FF6EF7108405F
:103310004249091D08807047002140481C3001883F
:10332000001F008841EA0040704700B50246FFF7E1
:10333000E0FF100C394918310880091D0A80FFF799
:10334000E1FF00BD00B50246FFF7D3FFC2F3034023
:10335000324908310880091D0A80FFF7D3FF00BDFC
:1033600000B50246FFF7C5FF100C2C49203108803C
:10337000091D0A80FFF7C6FF00BD00202749103154
:1033800009880907080B2549143109880843704743
:1033900000BF2248001D008800F020000028F8D05F
:1033A00070471E48001D00884FF6F77108401B4902
:1033B000091D088000BF1948001D008800F00800A2
:1033C0000028F8D0704701460020144A121D1288C8
:1033D0000A400AB1012000E0002070470F49091D92
:1033E000098881430D4A121D118070470146002053
:1033F0000A4A121D12880A40D0B2084A12880A40AE
:1034000012B108B1012000E0002070470349091DF6
:1034100009888143014A121D11807047002800402D
:1034200010B50446BE48844208D101218014FFF73C
:1034300041FB0021A014FFF73DFB16E0B948844290
:1034400008D101210014FFF742FB00212014FFF7EF
:103450003EFB0AE0B448844207D10121C013FFF7C4
:1034600036FB0021E013FFF732FB10BD10B5002240
:10347000028802F441520B884C8823438C882343F2
:10348000CC8823430C8923434C8923438C892343D1
:10349000CC8923431A430280838B4FF2FF7423406D
:1034A00083830B8A038210BD2DE9F04F85B005465A
:1034B0000C464FF0000902274FF000084FF0010BB7
:1034C0000026B246A88B4FF240010840A883022094
:1034D0002884B5F81C90A068022801D100BF38E00C
:1034E000A08810B94FF0010B01E04FF0020B8D489E
:1034F000854200D100E000BF6846FFF754FADDF8CE
:1035000000A0E088B0F5007F0AD14FEA1A2000EB56
:1035100080004000A168B0FBF1F0401D86B20BE0D6
:103520004FEA4B10BAFBF0F000EB80004000A168BE
:10353000B0FBF1F0401D86B20A20B6FBF0F606F0B3
:103540000108A6EB0800C0F34F074FF6FF7000EA32
:103550000828022F01DBFF2F02DD02274FF00008B1
:10356000E08840EA080038432884A088A1890843FD
:10357000618808432188084340F4006040EA090953
:10358000A5F81C9005B0BDE8F08F002101804180B6
:103590008180C180018141818181C18107210182B6
:1035A00070470021018041808180C18002218160BB
:1035B00000218181704721B1028842F040020280DF
:1035C00004E002884FF6BF731A400280704721B1B1
:1035D000828B42F48062828304E0828B4FF6FF3359
:1035E0001A408283704730B5002400230C11012556
:1035F000A540ABB21AB185881D43858002E085885D
:103600009D43858030BD1AB183880B43838002E0DF
:1036100083888B4383807047818170470146888906
:1036200070474FF6FF62914204D0028842F48072E4
:10363000028004E002884FF6FF631A400280704760
:1036400021B1828842F00402828004E082884FF631
:10365000FB731A408280704702884FF2FF731A4052
:10366000028002880A4302807047018841F4805139
:103670000180704721B1028842F40052028004E0C8
:1036800002884DF6FF731A40028070470246002000
:10369000012901D0108B00E0908A70470146088A0A
:1036A0007047B1F5804F04D1028842F48042028015
:1036B00004E002884BF6FF731A400280704702460E
:1036C000002013890B400BB1012000E0002070475F
:1036D000CA4302817047F0B502460020002400234F
:1036E000002501F00F070126BE40B4B20B110126E0
:1036F0009E40B3B2968806EA03051689264016B1A5
:103700000DB1012000E00020F0BD10B5002201F055
:103710000F040123A3409AB2D343038110BD0000DC
:103720000030014000380040003C00407FB5CA48EE
:10373000807A092871D2DFE800F0050B121A232DD8
:103740003A4A5C00C449096808688047C4B264E02A
:10375000C14A5069126811688847C4B25DE0BE4B27
:10376000996958691B681A689047C4B255E0BA4D08
:10377000EA69A96968692D682B689847C4B24CE06A
:10378000B54E336AF269B169706936683568A84721
:10379000C4B242E0B048406AAF4E0090336AF2696A
:1037A000B169706936683568A847C4B235E0AA487F
:1037B000806AA949496AA84ECDE90010336AF269C6
:1037C000B169706936683568A847C4B225E0A24877
:1037D000C16A806AA04A526A9F4ECDE900200291D8
:1037E000336AF269B169706936683568A847C4B24E
:1037F00013E09948016BC26A806A974B5B6A964EE8
:10380000CDE90030CDE90221336AF269B16970690E
:1038100036683568A847C4B200BF00BF204604B070
:1038200070BD02460B46002100BF0AE08B4800EB4A
:1038300001104079904202D1197000207047481C55
:10384000C1B2874800788142F0DD0120F6E71FB55C
:10385000002004E000220DF80020421CD0B208280D
:10386000F8DB022100200CE07B4A127A7B4B03EB51
:103870000212121D525C02AB1A544A1CD1B2421CF5
:10388000D0B20828F0DB002010E002AA125C5AB186
:1038900002AA125C521E1DF80220521CD3B202AAC8
:1038A000125C521E0DF80230421CD0B20828ECDB2C
:1038B0000021002006E01DF800200AB14A1CD1B208
:1038C000421CD0B20828F6DB634A9172002006E061
:1038D0001DF80030604A0B321354421CD0B2082845
:1038E000F6DB1FBD10B504465C4800EB04105A49D6
:1038F000086008460472594800EB04104079487289
:10390000FFF7A5FF10BD01460878002204E0531C14
:10391000CB5C8B54531CDAB2072AF8DB704730B506
:10392000014602234C780D7804EB0520002205E0C7
:10393000CC5C8C545C1CE3B2541CE2B2062AF7DB6C
:1039400030BD30B5014604230C7824064D7804EBD5
:1039500005448D7804EB0524CD786019002205E03C
:10396000CC5C8C545C1CE3B2541CE2B2042AF7DB3E
:1039700030BD3CB50546002404E0285D0DF8040088
:10398000601CC4B2082CF8DB002428E032480B305D
:10399000005D10B330480B30005D012804D00228D0
:1039A0000AD0042818D10FE06846FFF7ACFF2A4977
:1039B000143141F824000FE06846FFF7B0FF2649B4
:1039C000143141F8240007E06846FFF7BAFF2249A6
:1039D000143141F8240000BF00BF601CC4B2082CA1
:1039E000D4DB3CBD38B51F48007828B901201D49FB
:1039F00008701B4800F04EF81B48008800F4004097
:103A0000002827D019480078AA281DD11748807AA5
:103A1000BB2819D1154948786946FFF702FF0446CB
:103A200054B99DF80000FFF75DFF1048801CFFF7B8
:103A3000A0FFFFF77BFE02E00DA000F02FF80020B2
:103A40000A490870887202E00EA000F027F80020F2
:103A50000549088038BD0000D40100208400002002
:103A600080000020810000206800002078130020E2
:103A7000CEDEB4CBD6B8C1EEA3A1A3A1A3A10D0AFB
:103A800000000000B8F1CABDB4EDCEF3A3A10D0A49
:103A90000000000015210170704770470FB4044901
:103AA00010B503AA029800F0FFF810BC5DF814FBF3
:103AB000540000202DE9F0410E460446002020620B
:103AC0002046E168884730B3252805D0D4E9012194
:103AD0009047206A401CF2E7E168204600278847AB
:103AE000050018D0A5F14100192802D820354FF45F
:103AF00000673246294620462760FCF751FB40B15B
:103B0000012804D0F61D26F007060836D8E7361D32
:103B1000D6E72846DAE7206ABDE8F0812DE9F041D2
:103B20000646002410687529314616A510D0AFF35B
:103B30000080002802DA404213A507E031688A07B6
:103B400001D512A502E0490704D511A5012401E021
:103B5000AFF3008000210A2206F1240709E0B0FB40
:103B6000F2FCB0FBF2F302FB1C0030307854184634
:103B7000491C0028F3D123462A463046BDE8F041CF
:103B800000F038B8000000002D0000002B000000FD
:103B90002000000070B504460D4621461068AFF3C2
:103BA00000802188090502D50F4A7A4402E00E4AB6
:103BB0007A440E32002104F1240305E000F00F06E0
:103BC0000009965D5E54491C0028F7D12078002337
:103BD000000704D5702D02D009B10223113220460E
:103BE000BDE8704000F006B8AA09000070477047B1
:103BF000704770472DE9F0470D46994692460446B6
:103C000000F124080168880604D5E06921F010015C
:103C1000216000E00120A84201DD471B00E00027F1
:103C2000A1697A1902EB0900081AA0612078C00680
:103C300002D42046AFF30080002608E0D4E9012139
:103C40001AF806009047206A401C761C20624E45F8
:103C5000F4DB2078C0060AD52046AFF3008006E0EA
:103C6000D4E9012130209047206A401C2062381E90
:103C7000A7F10107F4DC07E0D4E9012118F80500F9
:103C80009047206A401C2062281EA5F10105F3DC44
:103C90002046AFF300802078000602D50220BDE860
:103CA000F0870120FBE70000074B70B50D467B4411
:103CB00000F011F80446284600F020F810B14FF04B
:103CC000FF3070BD204670BDD5E4FFFF01694A1C7E
:103CD00002610878704700B58FB0CDE9013100214D
:103CE000059105497944CDE9031011466846FFF76F
:103CF000E1FE0FB000BD0000E5FFFFFF007B00F01C
:103D000080007047754600F029F8AE460500694608
:103D1000534620F00700854618B020B5FEF782FB19
:103D2000BDE820404FF000064FF000074FF00008BC
:103D30004FF0000B21F00701AC46ACE8C009ACE83D
:103D4000C009ACE8C009ACE8C0098D46704704461C
:103D5000AFF300802046FCF738FA000000487047B7
:103D60000815002021F00042A2F16052B2F5801F38
:103D700001F0004328BFD2F17F6C0BD95FEA001C31
:103D800043EAC20242EB507018BF704728BF20F0D0
:103D900001007047B2F5801FBCBF184670474FEA5C
:103DA000410C1CF5001F02D2084600F0C4BB70B5E0
:103DB00000F05CF900000089FFF7F6BF4FF000400B
:103DC000A0F580007047000010B591EA030F48BFCE
:103DD00083F0004300F1A681841A71EB030C05D235
:103DE000121943EB0C03001B61EB0C01DFF824E11B
:103DF0004FEA1154A4EB135C1EEA430F18BF9EEA6E
:103E0000445F73D023EA0E03DCF1200E21EA045153
:103E100043F4801332D322FA0CFE10EB0E0023FA87
:103E20000CFE41EB0E01CCF1200E03FA0EFE10EB5E
:103E30000E0051F10001B1F5801FCCF1200E32D2FD
:103E400001EB045112FA0EF2BDE8104058BF704762
:103E5000401C38BF5FEA420218BF7047002814BFF9
:103E600020F0010041F100014FEA410313F5001F6A
:103E700038BF7047A1F1C04100F046B9012A43EBB9
:103E80000302ACF1200CDCF11F0E32BF4FF0000E2C
:103E900023FA0CF310EB030041EB0451B4EB115F78
:103EA000D0D0A1EB045101F5801149085FEA300040
:103EB00001EB04510ED350F1000038BF12FA0EFE90
:103EC00008D1BDE81040C9E7401C38BF5FEA420294
:103ED000CAD1C3E7BDE810404FEA410313F5001F04
:103EE00038BF7047A1F1C04100F00EB99EEA445FAF
:103EF00008D011EA5E0FBDE8104004BF01F0004198
:103F000000207047BDE8104070B500F0AFF800BF6A
:103F100064FBBE3E0000E0FFDFF848C170B51CEA5C
:103F2000111E1EBF1CEA13159EEA0C0F95EA0C0F1A
:103F300000F06F8081EA030423EA4C134EEAD47E3A
:103F400021EA4C1141F4801143F48013AE44A1FBEB
:103F5000024CA0FB0365AEF17F7E361955EB0C05D4
:103F6000A1FB034C4CF10003A0FB021C16EB0C065A
:103F7000654153F10003094218BF46F0010613F4EE
:103F8000007F0BD14FEA03314FEA0530340341EA99
:103F9000155140EA16506FF003020AE04FEAC321C0
:103FA0004FEAC520F40241EA555140EA56506FF0FD
:103FB000020202EB2E4201EB025585EACE710AD0D5
:103FC0005FEA440C18BF24F0004450F1000041F1B6
:103FD000000120EAD47040F2FE7C624500D270BD40
:103FE000A84214BF4FF080444FF04044002E08BF59
:103FF0000024BEF1806FA8BFA1F1C041BDE87040B0
:1040000080F282804FF0000001F1C04101F00041D8
:1040100070479EEA0C0F0CEA131518BF95EA0C0FB7
:1040200006D04FF0000081EA030E0EF0004170BD93
:1040300000F01CF88900013E00F007B800F009B854
:104040004FEA430C5FEA5C5C08D081EA030100F0B0
:104050005BB84FEA410C5FEA5C5CF6D14FF00000C0
:10406000014970470000FF070000F87F0EF1020EC3
:104070002EF0030E5EF8046B364205D4012A43EBA2
:10408000030515F5001F12D8012841EB010C1CF5A2
:10409000001F0CD80ED14FEAD17C15F5001F0CEB98
:1040A0004C0C0CF1020C08BF4CEBD37C04E04FF03D
:1040B000080C01E04FEAD37C0CEB4C0526FA05F620
:1040C00006F00706B6F1040C06D20EEB860CBDE82E
:1040D00070404CF0010C6047DFE80CF0090B020265
:1040E0004FF000414FF00000A1F5002170BD1946CE
:1040F0001046012851EB010418BFD4F5001484BF09
:10410000002001F0004170BD0808A0F500114FEA41
:104110003101704710B591EA030F48BF83F00043A7
:104120003FF55AAE841A71EB030C07D212198CF0CA
:10413000004C43EB0C03001B61EB0C01DFF8A4E126
:104140004FEA1154A4EB135C1EEA430F18BF9EEA1A
:10415000445F00F0B08023EA6E03524221EA04512A
:10416000C3EB6E0338BF5B1EDCF1200E25D322FAB1
:104170000CFE10EB0E0043FA0CFE41EB0E01CCF1ED
:10418000200E03FA0EFE10EB0E0051F10001CCF1EF
:10419000200E29D412FA0EF201EB0451BDE81040B2
:1041A00058BF7047401C1CBFB2F1004F7047002839
:1041B0000CBF491C20F00100704712EB020E43EBCC
:1041C000030218BF4FF0010E4EEA4202ACF1200C80
:1041D000DCF11E0E54D943FA0CFE10EB0E0051F127
:1041E000FF31CCF11E0ED5D50EF1010E12FA0EFEE6
:1041F000404141EB010101EB445C5FEA5C5C10D99A
:1042000010EBDE7001EB045138BFBEF1004FBDE88A
:10421000104018BF704700280CBF491C20F0010057
:10422000704730D24FEAD42C11F5001124F4006409
:104230001BD0B1FA81F20B3AA41AA41ED2F12003CA
:10424000914030FA03F31943904001EBCC71002CFC
:1042500001EB0451BDE81040A8BF704701F1C04117
:104260004FF0000001F000417047B0FA80F310FAFF
:1042700003F100D110BDE41A173C4805C90AE4E770
:1042800001EB045110BD491001EB0451BDE8104091
:104290004FEA300002E04FF0000170474A0008BFCB
:1042A0000042F8D0B2F5001F28BF704701F000416E
:1042B0004FF0000070479EEA445F07D011EA5E0F9E
:1042C000BDE8104004BF002100207047BDE8104049
:1042D00070B5FFF7CBFE00BF40DFF63E83F0004134
:1042E000104670470000E0FF43004FEAD30C4FEA4E
:1042F0003C0C43401FBF40070CF1605113F0FE4FD0
:1043000070471CF0006F03D100200CF00041704793
:104310000CF0004343EA507010B540EACC0000F0C6
:10432000C4F800BF000000924FEA0001FFF7ECBEA6
:104330004FF000414FF00000A1F500217047000050
:10434000C10DD1F19E0206DB4FEA002343F000438A
:1043500023FA02F07047004207D54FEA4001B1F15D
:10436000FE4F02D24FF00000704710B500F09DF8EC
:1043700049922480002070476FEA200070470000B7
:10438000B0FA80F310FA03F2C3F19D030AD0D90505
:1043900001EB1220530638BF704700F1010008BF3F
:1043A00020F00100704700004FF47F0C1CEAD0128F
:1043B0001EBF1CEAD11392EA0C0F93EA0C0F00F017
:1043C000478090EA010F48BF42F480724FF0004CE2
:1043D0004CEA00204CEA012102EB0302A0FB01138E
:1043E000A2F50002002918BF43F001035B0028BFBB
:1043F0004FEA330342EB22425FEA132C4CEBC250EC
:104400002EBFBCEB436FB2F57C0F70474FEA036CD5
:10441000BCF1004F08BF20F00100B2F57C0F38BF9F
:1044200070470BD582F0FF0212F5803FC8BF70477E
:1044300000F1C040D8BF00F00040704700F5000C0C
:104440005FEA4C0C48BF7047B0F1C04000F073B851
:1044500090EA010F0CEAD11348BF42F48072624522
:1044600038BF634504D280EA010000F00040704785
:1044700010B500F01AF800BF8900013E00F007B83F
:1044800000F009B85FEA410C5FEA1C6C08D080EAD2
:10449000010000F050B85FEA400C5FEA1C6CF6D1F6
:1044A0004FF00040A0F5800070470EF1020E2EF094
:1044B000030E5EF8044B244204D44FEA4102B2F1E9
:1044C0007F4F11D84FEA4003B3F17F4F0CD80ED184
:1044D0004FEAD07CB2F17F4F0CEB4C0C0CF1020C8C
:1044E00008BF4CEBD17C04E04FF0080C01E04FEA30
:1044F000D17C0CEB4C0324FA03F404F00704B4F170
:10450000040C06D20EEB840CBDE810404CF0010CFC
:104510006047DFE80CF0070802024FF00040A0F50A
:10452000800010BD0846420018BFD2F1807288BFDB
:1045300000F0004010BDFF2141EAD050C005704797
:104540000003030601040602050003051F1C1F1ECD
:104550001F1E1F1F1E1F1E1F3031323334353637CA
:1045600038394142434445464030580030313233B7
:1045700034353637383961626364656640307800B7
:10458000A0450008000000200802000028010008E3
:104590007846000808020020601900008401000825
:1045A000E15AFF01E00A010203040506070814842A
:1045B000A24A04292219214209031316EF273801C0
:1045C0004002010112442B4003089938693C45021E
:1045D0000406081371026C08AADB2412BB1B8D03AE
:1045E00010793312BB2AB510180902010202030325
:1045F0000404101B2104108A03302AD7106A0465B2
:1046000012BB2A65108A05402A73108A06101B0106
:1046100005108A07302A57808A0A102A2D101B0B92
:10462000017149102A5F308A0C402AF1508A0F101C
:104630002AF9108A10101B2D0A101A12401D0304AB
:104640000506101B9909108A13101B0108108A1403
:10465000302A1BE08A20802AAB308A21202A57206A
:104660008A22102A47408A23102A0F308A244022A7
:084670008414202D37022C08F0
:04000005080000ED02
:00000001FF
